{
  "_format": "hh-sol-artifact-1",
  "contractName": "CBDNFT",
  "sourceName": "src/CBDNFT.sol",
  "abi": [
    {
      "inputs": [
        {
          "internalType": "string",
          "name": "name",
          "type": "string"
        },
        {
          "internalType": "string",
          "name": "symbol",
          "type": "string"
        }
      ],
      "stateMutability": "nonpayable",
      "type": "constructor"
    },
    {
      "anonymous": false,
      "inputs": [
        {
          "indexed": true,
          "internalType": "address",
          "name": "owner",
          "type": "address"
        },
        {
          "indexed": true,
          "internalType": "address",
          "name": "approved",
          "type": "address"
        },
        {
          "indexed": true,
          "internalType": "uint256",
          "name": "tokenId",
          "type": "uint256"
        }
      ],
      "name": "Approval",
      "type": "event"
    },
    {
      "anonymous": false,
      "inputs": [
        {
          "indexed": true,
          "internalType": "address",
          "name": "owner",
          "type": "address"
        },
        {
          "indexed": true,
          "internalType": "address",
          "name": "operator",
          "type": "address"
        },
        {
          "indexed": false,
          "internalType": "bool",
          "name": "approved",
          "type": "bool"
        }
      ],
      "name": "ApprovalForAll",
      "type": "event"
    },
    {
      "anonymous": false,
      "inputs": [
        {
          "indexed": true,
          "internalType": "address",
          "name": "previousOwner",
          "type": "address"
        },
        {
          "indexed": true,
          "internalType": "address",
          "name": "newOwner",
          "type": "address"
        }
      ],
      "name": "OwnershipTransferred",
      "type": "event"
    },
    {
      "anonymous": false,
      "inputs": [
        {
          "indexed": true,
          "internalType": "address",
          "name": "from",
          "type": "address"
        },
        {
          "indexed": true,
          "internalType": "address",
          "name": "to",
          "type": "address"
        },
        {
          "indexed": true,
          "internalType": "uint256",
          "name": "tokenId",
          "type": "uint256"
        }
      ],
      "name": "Transfer",
      "type": "event"
    },
    {
      "inputs": [],
      "name": "CBDNFTPriceForCBDT",
      "outputs": [
        {
          "internalType": "uint256",
          "name": "",
          "type": "uint256"
        }
      ],
      "stateMutability": "view",
      "type": "function"
    },
    {
      "inputs": [],
      "name": "_CBDNFTPriceForCBDT",
      "outputs": [
        {
          "internalType": "uint256",
          "name": "",
          "type": "uint256"
        }
      ],
      "stateMutability": "view",
      "type": "function"
    },
    {
      "inputs": [
        {
          "internalType": "address",
          "name": "to",
          "type": "address"
        },
        {
          "internalType": "uint256",
          "name": "tokenId",
          "type": "uint256"
        }
      ],
      "name": "approve",
      "outputs": [],
      "stateMutability": "nonpayable",
      "type": "function"
    },
    {
      "inputs": [
        {
          "internalType": "address",
          "name": "owner",
          "type": "address"
        }
      ],
      "name": "balanceOf",
      "outputs": [
        {
          "internalType": "uint256",
          "name": "",
          "type": "uint256"
        }
      ],
      "stateMutability": "view",
      "type": "function"
    },
    {
      "inputs": [],
      "name": "baseURI",
      "outputs": [
        {
          "internalType": "string",
          "name": "",
          "type": "string"
        }
      ],
      "stateMutability": "view",
      "type": "function"
    },
    {
      "inputs": [
        {
          "internalType": "address",
          "name": "to",
          "type": "address"
        },
        {
          "internalType": "uint256",
          "name": "numberOfTokens",
          "type": "uint256"
        }
      ],
      "name": "batchMint",
      "outputs": [],
      "stateMutability": "nonpayable",
      "type": "function"
    },
    {
      "inputs": [
        {
          "internalType": "uint256",
          "name": "tokenId",
          "type": "uint256"
        }
      ],
      "name": "getApproved",
      "outputs": [
        {
          "internalType": "address",
          "name": "",
          "type": "address"
        }
      ],
      "stateMutability": "view",
      "type": "function"
    },
    {
      "inputs": [
        {
          "internalType": "uint256",
          "name": "tokenId",
          "type": "uint256"
        }
      ],
      "name": "getOwnershipData",
      "outputs": [
        {
          "components": [
            {
              "internalType": "address",
              "name": "addr",
              "type": "address"
            },
            {
              "internalType": "uint64",
              "name": "startTimestamp",
              "type": "uint64"
            }
          ],
          "internalType": "struct ERC721A.TokenOwnership",
          "name": "",
          "type": "tuple"
        }
      ],
      "stateMutability": "view",
      "type": "function"
    },
    {
      "inputs": [],
      "name": "hiddenURI",
      "outputs": [
        {
          "internalType": "string",
          "name": "",
          "type": "string"
        }
      ],
      "stateMutability": "view",
      "type": "function"
    },
    {
      "inputs": [
        {
          "internalType": "address",
          "name": "owner",
          "type": "address"
        },
        {
          "internalType": "address",
          "name": "operator",
          "type": "address"
        }
      ],
      "name": "isApprovedForAll",
      "outputs": [
        {
          "internalType": "bool",
          "name": "",
          "type": "bool"
        }
      ],
      "stateMutability": "view",
      "type": "function"
    },
    {
      "inputs": [
        {
          "internalType": "address",
          "name": "to",
          "type": "address"
        }
      ],
      "name": "mint",
      "outputs": [],
      "stateMutability": "nonpayable",
      "type": "function"
    },
    {
      "inputs": [],
      "name": "mintEnabled",
      "outputs": [
        {
          "internalType": "bool",
          "name": "",
          "type": "bool"
        }
      ],
      "stateMutability": "view",
      "type": "function"
    },
    {
      "inputs": [],
      "name": "name",
      "outputs": [
        {
          "internalType": "string",
          "name": "",
          "type": "string"
        }
      ],
      "stateMutability": "view",
      "type": "function"
    },
    {
      "inputs": [],
      "name": "nextOwnerToExplicitlySet",
      "outputs": [
        {
          "internalType": "uint256",
          "name": "",
          "type": "uint256"
        }
      ],
      "stateMutability": "view",
      "type": "function"
    },
    {
      "inputs": [
        {
          "internalType": "address",
          "name": "owner",
          "type": "address"
        }
      ],
      "name": "numberMinted",
      "outputs": [
        {
          "internalType": "uint256",
          "name": "",
          "type": "uint256"
        }
      ],
      "stateMutability": "view",
      "type": "function"
    },
    {
      "inputs": [],
      "name": "owner",
      "outputs": [
        {
          "internalType": "address",
          "name": "",
          "type": "address"
        }
      ],
      "stateMutability": "view",
      "type": "function"
    },
    {
      "inputs": [
        {
          "internalType": "uint256",
          "name": "tokenId",
          "type": "uint256"
        }
      ],
      "name": "ownerOf",
      "outputs": [
        {
          "internalType": "address",
          "name": "",
          "type": "address"
        }
      ],
      "stateMutability": "view",
      "type": "function"
    },
    {
      "inputs": [],
      "name": "renounceOwnership",
      "outputs": [],
      "stateMutability": "nonpayable",
      "type": "function"
    },
    {
      "inputs": [],
      "name": "revealed",
      "outputs": [
        {
          "internalType": "bool",
          "name": "",
          "type": "bool"
        }
      ],
      "stateMutability": "view",
      "type": "function"
    },
    {
      "inputs": [
        {
          "internalType": "address",
          "name": "from",
          "type": "address"
        },
        {
          "internalType": "address",
          "name": "to",
          "type": "address"
        },
        {
          "internalType": "uint256",
          "name": "tokenId",
          "type": "uint256"
        }
      ],
      "name": "safeTransferFrom",
      "outputs": [],
      "stateMutability": "nonpayable",
      "type": "function"
    },
    {
      "inputs": [
        {
          "internalType": "address",
          "name": "from",
          "type": "address"
        },
        {
          "internalType": "address",
          "name": "to",
          "type": "address"
        },
        {
          "internalType": "uint256",
          "name": "tokenId",
          "type": "uint256"
        },
        {
          "internalType": "bytes",
          "name": "_data",
          "type": "bytes"
        }
      ],
      "name": "safeTransferFrom",
      "outputs": [],
      "stateMutability": "nonpayable",
      "type": "function"
    },
    {
      "inputs": [
        {
          "internalType": "address",
          "name": "operator",
          "type": "address"
        },
        {
          "internalType": "bool",
          "name": "approved",
          "type": "bool"
        }
      ],
      "name": "setApprovalForAll",
      "outputs": [],
      "stateMutability": "nonpayable",
      "type": "function"
    },
    {
      "inputs": [
        {
          "internalType": "string",
          "name": "baseURI_",
          "type": "string"
        }
      ],
      "name": "setBaseURI",
      "outputs": [],
      "stateMutability": "nonpayable",
      "type": "function"
    },
    {
      "inputs": [
        {
          "internalType": "uint256",
          "name": "_newPrice",
          "type": "uint256"
        }
      ],
      "name": "setCBDNFTPriceForCBDT",
      "outputs": [],
      "stateMutability": "nonpayable",
      "type": "function"
    },
    {
      "inputs": [
        {
          "internalType": "string",
          "name": "hiddenURI_",
          "type": "string"
        }
      ],
      "name": "setHiddenURI",
      "outputs": [],
      "stateMutability": "nonpayable",
      "type": "function"
    },
    {
      "inputs": [
        {
          "internalType": "uint256",
          "name": "quantity",
          "type": "uint256"
        }
      ],
      "name": "setOwnersExplicit",
      "outputs": [],
      "stateMutability": "nonpayable",
      "type": "function"
    },
    {
      "inputs": [
        {
          "internalType": "bytes4",
          "name": "interfaceId",
          "type": "bytes4"
        }
      ],
      "name": "supportsInterface",
      "outputs": [
        {
          "internalType": "bool",
          "name": "",
          "type": "bool"
        }
      ],
      "stateMutability": "view",
      "type": "function"
    },
    {
      "inputs": [],
      "name": "symbol",
      "outputs": [
        {
          "internalType": "string",
          "name": "",
          "type": "string"
        }
      ],
      "stateMutability": "view",
      "type": "function"
    },
    {
      "inputs": [],
      "name": "toggleMinting",
      "outputs": [],
      "stateMutability": "nonpayable",
      "type": "function"
    },
    {
      "inputs": [],
      "name": "toggleRevealed",
      "outputs": [],
      "stateMutability": "nonpayable",
      "type": "function"
    },
    {
      "inputs": [
        {
          "internalType": "uint256",
          "name": "index",
          "type": "uint256"
        }
      ],
      "name": "tokenByIndex",
      "outputs": [
        {
          "internalType": "uint256",
          "name": "",
          "type": "uint256"
        }
      ],
      "stateMutability": "view",
      "type": "function"
    },
    {
      "inputs": [
        {
          "internalType": "address",
          "name": "owner",
          "type": "address"
        },
        {
          "internalType": "uint256",
          "name": "index",
          "type": "uint256"
        }
      ],
      "name": "tokenOfOwnerByIndex",
      "outputs": [
        {
          "internalType": "uint256",
          "name": "",
          "type": "uint256"
        }
      ],
      "stateMutability": "view",
      "type": "function"
    },
    {
      "inputs": [
        {
          "internalType": "uint256",
          "name": "tokenId",
          "type": "uint256"
        }
      ],
      "name": "tokenURI",
      "outputs": [
        {
          "internalType": "string",
          "name": "",
          "type": "string"
        }
      ],
      "stateMutability": "view",
      "type": "function"
    },
    {
      "inputs": [],
      "name": "totalSupply",
      "outputs": [
        {
          "internalType": "uint256",
          "name": "",
          "type": "uint256"
        }
      ],
      "stateMutability": "view",
      "type": "function"
    },
    {
      "inputs": [
        {
          "internalType": "address",
          "name": "from",
          "type": "address"
        },
        {
          "internalType": "address",
          "name": "to",
          "type": "address"
        },
        {
          "internalType": "uint256",
          "name": "tokenId",
          "type": "uint256"
        }
      ],
      "name": "transferFrom",
      "outputs": [],
      "stateMutability": "nonpayable",
      "type": "function"
    },
    {
      "inputs": [
        {
          "internalType": "address",
          "name": "newOwner",
          "type": "address"
        }
      ],
      "name": "transferOwnership",
      "outputs": [],
      "stateMutability": "nonpayable",
      "type": "function"
    },
    {
      "inputs": [],
      "name": "withdraw",
      "outputs": [],
      "stateMutability": "nonpayable",
      "type": "function"
    }
  ],
  "bytecode": "0x6080604052600c805460ff191660011790553480156200001e57600080fd5b50604051620025c5380380620025c5833981016040819052620000419162000263565b8151829082906200005a906001906020850190620000f0565b50805162000070906002906020840190620000f0565b5050506200008d620000876200009a60201b60201c565b6200009e565b505060016008556200030a565b3390565b600780546001600160a01b038381166001600160a01b0319831681179093556040519116919082907f8be0079c531659141344cd1fd0a4f28419497f9722a3daafe3b4186f6b6457e090600090a35050565b828054620000fe90620002cd565b90600052602060002090601f0160209004810192826200012257600085556200016d565b82601f106200013d57805160ff19168380011785556200016d565b828001600101855582156200016d579182015b828111156200016d57825182559160200191906001019062000150565b506200017b9291506200017f565b5090565b5b808211156200017b576000815560010162000180565b634e487b7160e01b600052604160045260246000fd5b600082601f830112620001be57600080fd5b81516001600160401b0380821115620001db57620001db62000196565b604051601f8301601f19908116603f0116810190828211818310171562000206576200020662000196565b816040528381526020925086838588010111156200022357600080fd5b600091505b8382101562000247578582018301518183018401529082019062000228565b83821115620002595760008385830101525b9695505050505050565b600080604083850312156200027757600080fd5b82516001600160401b03808211156200028f57600080fd5b6200029d86838701620001ac565b93506020850151915080821115620002b457600080fd5b50620002c385828601620001ac565b9150509250929050565b600181811c90821680620002e257607f821691505b602082108114156200030457634e487b7160e01b600052602260045260246000fd5b50919050565b6122ab806200031a6000396000f3fe608060405234801561001057600080fd5b50600436106102275760003560e01c80636a62784211610130578063a22cb465116100b8578063d7224ba01161007c578063d7224ba014610489578063dc33e68114610492578063e03d3521146104a5578063e985e9c5146104ae578063f2fde38b146104ea57600080fd5b8063a22cb46514610430578063b88d4fde14610443578063bbaac02f14610456578063c87b56dd14610469578063d12397301461047c57600080fd5b80637d55094d116100ff5780637d55094d146103c65780638cc54e7f146103ce5780638da5cb5b146103d65780639231ab2a146103e757806395d89b411461042857600080fd5b80636a627842146103905780636c0360eb146103a357806370a08231146103ab578063715018a6146103be57600080fd5b80633ccfd60b116101b35780635183022711610182578063518302271461033d57806355f804b31461034f5780635bc020bc146103625780635bd9e8a61461036a5780636352211e1461037d57600080fd5b80633ccfd60b146102fc57806342842e0e1461030457806343508b05146103175780634f6ccce71461032a57600080fd5b806318160ddd116101fa57806318160ddd146102a957806318641335146102bb57806323b872dd146102c35780632d20fb60146102d65780632f745c59146102e957600080fd5b806301ffc9a71461022c57806306fdde0314610254578063081812fc14610269578063095ea7b314610294575b600080fd5b61023f61023a366004611cc9565b6104fd565b60405190151581526020015b60405180910390f35b61025c61056a565b60405161024b9190611d45565b61027c610277366004611d58565b6105fc565b6040516001600160a01b03909116815260200161024b565b6102a76102a2366004611d8d565b61068c565b005b6000545b60405190815260200161024b565b600d546102ad565b6102a76102d1366004611db7565b6107a4565b6102a76102e4366004611d58565b6107af565b6102ad6102f7366004611d8d565b610842565b6102a761099f565b6102a7610312366004611db7565b610aac565b6102a7610325366004611d8d565b610ac7565b6102ad610338366004611d58565b610aff565b600c5461023f90610100900460ff1681565b6102a761035d366004611df3565b610b61565b6102a7610b97565b6102a7610378366004611d58565b610bde565b61027c61038b366004611d58565b610c0d565b6102a761039e366004611e65565b610c1f565b61025c610cba565b6102ad6103b9366004611e65565b610d48565b6102a7610dd9565b6102a7610e0f565b61025c610e4d565b6007546001600160a01b031661027c565b6103fa6103f5366004611d58565b610e5a565b6040805182516001600160a01b0316815260209283015167ffffffffffffffff16928101929092520161024b565b61025c610e77565b6102a761043e366004611e80565b610e86565b6102a7610451366004611ed2565b610f4b565b6102a7610464366004611df3565b610f84565b61025c610477366004611d58565b610fba565b600c5461023f9060ff1681565b6102ad600b5481565b6102ad6104a0366004611e65565b611107565b6102ad600d5481565b61023f6104bc366004611fae565b6001600160a01b03918216600090815260066020908152604080832093909416825291909152205460ff1690565b6102a76104f8366004611e65565b611112565b60006001600160e01b031982166380ac58cd60e01b148061052e57506001600160e01b03198216635b5e139f60e01b145b8061054957506001600160e01b0319821663780e9d6360e01b145b8061056457506301ffc9a760e01b6001600160e01b03198316145b92915050565b60606001805461057990611fe1565b80601f01602080910402602001604051908101604052809291908181526020018280546105a590611fe1565b80156105f25780601f106105c7576101008083540402835291602001916105f2565b820191906000526020600020905b8154815290600101906020018083116105d557829003601f168201915b5050505050905090565b6000610609826000541190565b6106705760405162461bcd60e51b815260206004820152602d60248201527f455243373231413a20617070726f76656420717565727920666f72206e6f6e6560448201526c3c34b9ba32b73a103a37b5b2b760991b60648201526084015b60405180910390fd5b506000908152600560205260409020546001600160a01b031690565b600061069782610c0d565b9050806001600160a01b0316836001600160a01b031614156107065760405162461bcd60e51b815260206004820152602260248201527f455243373231413a20617070726f76616c20746f2063757272656e74206f776e60448201526132b960f11b6064820152608401610667565b336001600160a01b0382161480610722575061072281336104bc565b6107945760405162461bcd60e51b815260206004820152603960248201527f455243373231413a20617070726f76652063616c6c6572206973206e6f74206f60448201527f776e6572206e6f7220617070726f76656420666f7220616c6c000000000000006064820152608401610667565b61079f8383836111aa565b505050565b61079f838383611206565b6007546001600160a01b031633146107d95760405162461bcd60e51b81526004016106679061201c565b6002600854141561082c5760405162461bcd60e51b815260206004820152601f60248201527f5265656e7472616e637947756172643a207265656e7472616e742063616c6c006044820152606401610667565b600260085561083a816114eb565b506001600855565b600061084d83610d48565b82106108a65760405162461bcd60e51b815260206004820152602260248201527f455243373231413a206f776e657220696e646578206f7574206f6620626f756e604482015261647360f01b6064820152608401610667565b600080549080805b8381101561093f576000818152600360209081526040918290208251808401909352546001600160a01b038116808452600160a01b90910467ffffffffffffffff16918301919091521561090157805192505b876001600160a01b0316836001600160a01b03161415610936578684141561092f5750935061056492505050565b6001909301925b506001016108ae565b5060405162461bcd60e51b815260206004820152602e60248201527f455243373231413a20756e61626c6520746f2067657420746f6b656e206f662060448201526d0deeedccae440c4f240d2dcc8caf60931b6064820152608401610667565b6007546001600160a01b031633146109c95760405162461bcd60e51b81526004016106679061201c565b60026008541415610a1c5760405162461bcd60e51b815260206004820152601f60248201527f5265656e7472616e637947756172643a207265656e7472616e742063616c6c006044820152606401610667565b6002600855604051600090339047908381818185875af1925050503d8060008114610a63576040519150601f19603f3d011682016040523d82523d6000602084013e610a68565b606091505b505090508061083a5760405162461bcd60e51b815260206004820152601060248201526f2a3930b739b332b9103330b4b632b21760811b6044820152606401610667565b61079f83838360405180602001604052806000815250610f4b565b6007546001600160a01b03163314610af15760405162461bcd60e51b81526004016106679061201c565b610afb828261167a565b5050565b600080548210610b5d5760405162461bcd60e51b815260206004820152602360248201527f455243373231413a20676c6f62616c20696e646578206f7574206f6620626f756044820152626e647360e81b6064820152608401610667565b5090565b6007546001600160a01b03163314610b8b5760405162461bcd60e51b81526004016106679061201c565b61079f600a8383611c23565b6007546001600160a01b03163314610bc15760405162461bcd60e51b81526004016106679061201c565b600c805461ff001981166101009182900460ff1615909102179055565b6007546001600160a01b03163314610c085760405162461bcd60e51b81526004016106679061201c565b600d55565b6000610c1882611694565b5192915050565b333214610c655760405162461bcd60e51b815260206004820152601460248201527377686f20796f75207472796e612074726f6c6c3f60601b6044820152606401610667565b600c5460ff16610cac5760405162461bcd60e51b8152602060048201526012602482015271636f6d65206261636b20746f6d6f72726f7760701b6044820152606401610667565b610cb781600161167a565b50565b600a8054610cc790611fe1565b80601f0160208091040260200160405190810160405280929190818152602001828054610cf390611fe1565b8015610d405780601f10610d1557610100808354040283529160200191610d40565b820191906000526020600020905b815481529060010190602001808311610d2357829003601f168201915b505050505081565b60006001600160a01b038216610db45760405162461bcd60e51b815260206004820152602b60248201527f455243373231413a2062616c616e636520717565727920666f7220746865207a60448201526a65726f206164647265737360a81b6064820152608401610667565b506001600160a01b03166000908152600460205260409020546001600160801b031690565b6007546001600160a01b03163314610e035760405162461bcd60e51b81526004016106679061201c565b610e0d600061176b565b565b6007546001600160a01b03163314610e395760405162461bcd60e51b81526004016106679061201c565b600c805460ff19811660ff90911615179055565b60098054610cc790611fe1565b604080518082019091526000808252602082015261056482611694565b60606002805461057990611fe1565b6001600160a01b038216331415610edf5760405162461bcd60e51b815260206004820152601a60248201527f455243373231413a20617070726f766520746f2063616c6c65720000000000006044820152606401610667565b3360008181526006602090815260408083206001600160a01b03871680855290835292819020805460ff191686151590811790915590519081529192917f17307eab39ab6107e8899845ad3d59bd9653f200f220920489ca2b5937696c31910160405180910390a35050565b610f56848484611206565b610f62848484846117bd565b610f7e5760405162461bcd60e51b815260040161066790612051565b50505050565b6007546001600160a01b03163314610fae5760405162461bcd60e51b81526004016106679061201c565b61079f60098383611c23565b6060610fc7826000541190565b61100a5760405162461bcd60e51b81526020600482015260146024820152731d1c9bdb1b08191bd95cc81b9bdd08195e1a5cdd60621b6044820152606401610667565b600c54610100900460ff161561107557600a805461102790611fe1565b151590506110445760405180602001604052806000815250610564565b600a61104f836118bc565b6040516020016110609291906120c0565b60405160208183030381529060405292915050565b6009805461108290611fe1565b80601f01602080910402602001604051908101604052809291908181526020018280546110ae90611fe1565b80156110fb5780601f106110d0576101008083540402835291602001916110fb565b820191906000526020600020905b8154815290600101906020018083116110de57829003601f168201915b50505050509050919050565b6000610564826119ba565b6007546001600160a01b0316331461113c5760405162461bcd60e51b81526004016106679061201c565b6001600160a01b0381166111a15760405162461bcd60e51b815260206004820152602660248201527f4f776e61626c653a206e6577206f776e657220697320746865207a65726f206160448201526564647265737360d01b6064820152608401610667565b610cb78161176b565b60008281526005602052604080822080546001600160a01b0319166001600160a01b0387811691821790925591518593918516917f8c5be1e5ebec7d5bd14f71427d1e84f3dd0314c0f7b2291e5b200ac8c7c3b92591a4505050565b600061121182611694565b80519091506000906001600160a01b0316336001600160a01b0316148061124857503361123d846105fc565b6001600160a01b0316145b8061125a5750815161125a90336104bc565b9050806112c45760405162461bcd60e51b815260206004820152603260248201527f455243373231413a207472616e736665722063616c6c6572206973206e6f74206044820152711bdddb995c881b9bdc88185c1c1c9bdd995960721b6064820152608401610667565b846001600160a01b031682600001516001600160a01b0316146113385760405162461bcd60e51b815260206004820152602660248201527f455243373231413a207472616e736665722066726f6d20696e636f72726563746044820152651037bbb732b960d11b6064820152608401610667565b6001600160a01b03841661139c5760405162461bcd60e51b815260206004820152602560248201527f455243373231413a207472616e7366657220746f20746865207a65726f206164604482015264647265737360d81b6064820152608401610667565b6113ac60008484600001516111aa565b6001600160a01b03858116600090815260046020908152604080832080546001600160801b03198082166001600160801b03928316600019018316179092558986168086528386208054938416938316600190810190931693909317909255888552600390935281842080546001600160e01b031916909117600160a01b4267ffffffffffffffff16021790559086018083529120549091166114a157611454816000541190565b156114a1578251600082815260036020908152604090912080549186015167ffffffffffffffff16600160a01b026001600160e01b03199092166001600160a01b03909316929092171790555b5082846001600160a01b0316866001600160a01b03167fddf252ad1be2c89b69c2b068fc378daa952ba7f163c4a11628f55a4df523b3ef60405160405180910390a45b5050505050565b806115385760405162461bcd60e51b815260206004820152601860248201527f7175616e74697479206d757374206265206e6f6e7a65726f00000000000000006044820152606401610667565b60005461157e5760405162461bcd60e51b81526020600482015260146024820152731b9bc81d1bdad95b9cc81b5a5b9d1959081e595d60621b6044820152606401610667565b600b5460005481106115d25760405162461bcd60e51b815260206004820152601c60248201527f616c6c206f776e657273686970732068617665206265656e20736574000000006044820152606401610667565b60005482820160001981019110156115ed5750600054600019015b815b81811161166f576000818152600360205260409020546001600160a01b031661166757600061161d82611694565b805160008481526003602090815260409091208054919093015167ffffffffffffffff16600160a01b026001600160e01b03199091166001600160a01b0390921691909117179055505b6001016115ef565b50600101600b555050565b610afb828260405180602001604052806000815250611a58565b60408051808201909152600080825260208201526116b3826000541190565b6117125760405162461bcd60e51b815260206004820152602a60248201527f455243373231413a206f776e657220717565727920666f72206e6f6e657869736044820152693a32b73a103a37b5b2b760b11b6064820152608401610667565b815b6000818152600360209081526040918290208251808401909352546001600160a01b038116808452600160a01b90910467ffffffffffffffff169183019190915215611761579392505050565b5060001901611714565b600780546001600160a01b038381166001600160a01b0319831681179093556040519116919082907f8be0079c531659141344cd1fd0a4f28419497f9722a3daafe3b4186f6b6457e090600090a35050565b60006001600160a01b0384163b156118b057604051630a85bd0160e11b81526001600160a01b0385169063150b7a0290611801903390899088908890600401612167565b6020604051808303816000875af192505050801561183c575060408051601f3d908101601f19168201909252611839918101906121a4565b60015b611896573d80801561186a576040519150601f19603f3d011682016040523d82523d6000602084013e61186f565b606091505b50805161188e5760405162461bcd60e51b815260040161066790612051565b805181602001fd5b6001600160e01b031916630a85bd0160e11b1490506118b4565b5060015b949350505050565b6060816118e05750506040805180820190915260018152600360fc1b602082015290565b8160005b811561190a57806118f4816121d7565b91506119039050600a83612208565b91506118e4565b60008167ffffffffffffffff81111561192557611925611ebc565b6040519080825280601f01601f19166020018201604052801561194f576020820181803683370190505b5090505b84156118b45761196460018361221c565b9150611971600a86612233565b61197c906030612247565b60f81b8183815181106119915761199161225f565b60200101906001600160f81b031916908160001a9053506119b3600a86612208565b9450611953565b60006001600160a01b038216611a2c5760405162461bcd60e51b815260206004820152603160248201527f455243373231413a206e756d626572206d696e74656420717565727920666f7260448201527020746865207a65726f206164647265737360781b6064820152608401610667565b506001600160a01b0316600090815260046020526040902054600160801b90046001600160801b031690565b61079f83838360016000546001600160a01b038516611ac35760405162461bcd60e51b815260206004820152602160248201527f455243373231413a206d696e7420746f20746865207a65726f206164647265736044820152607360f81b6064820152608401610667565b83611b215760405162461bcd60e51b815260206004820152602860248201527f455243373231413a207175616e74697479206d75737420626520677265617465604482015267072207468616e20360c41b6064820152608401610667565b6001600160a01b03851660008181526004602090815260408083208054600160801b6001600160801b031982166001600160801b039283168c01831690811782900483168c01909216021790558483526003909152812080546001600160e01b031916909217600160a01b4267ffffffffffffffff16021790915581905b85811015611c1a5760405182906001600160a01b038916906000907fddf252ad1be2c89b69c2b068fc378daa952ba7f163c4a11628f55a4df523b3ef908290a48315611c0e57611bf260008884886117bd565b611c0e5760405162461bcd60e51b815260040161066790612051565b60019182019101611b9f565b506000556114e4565b828054611c2f90611fe1565b90600052602060002090601f016020900481019282611c515760008555611c97565b82601f10611c6a5782800160ff19823516178555611c97565b82800160010185558215611c97579182015b82811115611c97578235825591602001919060010190611c7c565b50610b5d9291505b80821115610b5d5760008155600101611c9f565b6001600160e01b031981168114610cb757600080fd5b600060208284031215611cdb57600080fd5b8135611ce681611cb3565b9392505050565b60005b83811015611d08578181015183820152602001611cf0565b83811115610f7e5750506000910152565b60008151808452611d31816020860160208601611ced565b601f01601f19169290920160200192915050565b602081526000611ce66020830184611d19565b600060208284031215611d6a57600080fd5b5035919050565b80356001600160a01b0381168114611d8857600080fd5b919050565b60008060408385031215611da057600080fd5b611da983611d71565b946020939093013593505050565b600080600060608486031215611dcc57600080fd5b611dd584611d71565b9250611de360208501611d71565b9150604084013590509250925092565b60008060208385031215611e0657600080fd5b823567ffffffffffffffff80821115611e1e57600080fd5b818501915085601f830112611e3257600080fd5b813581811115611e4157600080fd5b866020828501011115611e5357600080fd5b60209290920196919550909350505050565b600060208284031215611e7757600080fd5b611ce682611d71565b60008060408385031215611e9357600080fd5b611e9c83611d71565b915060208301358015158114611eb157600080fd5b809150509250929050565b634e487b7160e01b600052604160045260246000fd5b60008060008060808587031215611ee857600080fd5b611ef185611d71565b9350611eff60208601611d71565b925060408501359150606085013567ffffffffffffffff80821115611f2357600080fd5b818701915087601f830112611f3757600080fd5b813581811115611f4957611f49611ebc565b604051601f8201601f19908116603f01168101908382118183101715611f7157611f71611ebc565b816040528281528a6020848701011115611f8a57600080fd5b82602086016020830137600060208483010152809550505050505092959194509250565b60008060408385031215611fc157600080fd5b611fca83611d71565b9150611fd860208401611d71565b90509250929050565b600181811c90821680611ff557607f821691505b6020821081141561201657634e487b7160e01b600052602260045260246000fd5b50919050565b6020808252818101527f4f776e61626c653a2063616c6c6572206973206e6f7420746865206f776e6572604082015260600190565b60208082526033908201527f455243373231413a207472616e7366657220746f206e6f6e204552433732315260408201527232b1b2b4bb32b91034b6b83632b6b2b73a32b960691b606082015260800190565b600081516120b6818560208601611ced565b9290920192915050565b600080845481600182811c9150808316806120dc57607f831692505b60208084108214156120fc57634e487b7160e01b86526022600452602486fd5b81801561211057600181146121215761214e565b60ff1986168952848901965061214e565b60008b81526020902060005b868110156121465781548b82015290850190830161212d565b505084890196505b50505050505061215e81856120a4565b95945050505050565b6001600160a01b038581168252841660208201526040810183905260806060820181905260009061219a90830184611d19565b9695505050505050565b6000602082840312156121b657600080fd5b8151611ce681611cb3565b634e487b7160e01b600052601160045260246000fd5b60006000198214156121eb576121eb6121c1565b5060010190565b634e487b7160e01b600052601260045260246000fd5b600082612217576122176121f2565b500490565b60008282101561222e5761222e6121c1565b500390565b600082612242576122426121f2565b500690565b6000821982111561225a5761225a6121c1565b500190565b634e487b7160e01b600052603260045260246000fdfea2646970667358221220d162ee08f017a98d162940ec6abf7ff035565a21ffb110754cd3e8cc94cf4faf64736f6c634300080b0033",
  "linkReferences": {},
  "deployedLinkReferences": {}
}