{
  "contractName": "Game",
  "abi": [
    {
      "inputs": [],
      "stateMutability": "nonpayable",
      "type": "constructor"
    },
    {
      "anonymous": false,
      "inputs": [
        {
          "indexed": false,
          "internalType": "address",
          "name": "owner",
          "type": "address"
        }
      ],
      "name": "OwnershipTransferred",
      "type": "event"
    },
    {
      "inputs": [],
      "name": "addressOfUSDT",
      "outputs": [
        {
          "internalType": "address",
          "name": "",
          "type": "address"
        }
      ],
      "stateMutability": "view",
      "type": "function"
    },
    {
      "inputs": [
        {
          "internalType": "address",
          "name": "adr",
          "type": "address"
        }
      ],
      "name": "authorize",
      "outputs": [],
      "stateMutability": "nonpayable",
      "type": "function"
    },
    {
      "inputs": [
        {
          "internalType": "address",
          "name": "adr",
          "type": "address"
        }
      ],
      "name": "isAuthorized",
      "outputs": [
        {
          "internalType": "bool",
          "name": "",
          "type": "bool"
        }
      ],
      "stateMutability": "view",
      "type": "function"
    },
    {
      "inputs": [
        {
          "internalType": "address",
          "name": "account",
          "type": "address"
        }
      ],
      "name": "isOwner",
      "outputs": [
        {
          "internalType": "bool",
          "name": "",
          "type": "bool"
        }
      ],
      "stateMutability": "view",
      "type": "function"
    },
    {
      "inputs": [],
      "name": "owner",
      "outputs": [
        {
          "internalType": "address",
          "name": "",
          "type": "address"
        }
      ],
      "stateMutability": "view",
      "type": "function"
    },
    {
      "inputs": [
        {
          "internalType": "address payable",
          "name": "adr",
          "type": "address"
        }
      ],
      "name": "transferOwnership",
      "outputs": [],
      "stateMutability": "nonpayable",
      "type": "function"
    },
    {
      "inputs": [
        {
          "internalType": "address",
          "name": "adr",
          "type": "address"
        }
      ],
      "name": "unauthorize",
      "outputs": [],
      "stateMutability": "nonpayable",
      "type": "function"
    },
    {
      "stateMutability": "payable",
      "type": "receive"
    },
    {
      "inputs": [],
      "name": "balanceOfBNB",
      "outputs": [
        {
          "internalType": "uint256",
          "name": "",
          "type": "uint256"
        }
      ],
      "stateMutability": "view",
      "type": "function"
    },
    {
      "inputs": [],
      "name": "balanceOfUSDT",
      "outputs": [
        {
          "internalType": "uint256",
          "name": "",
          "type": "uint256"
        }
      ],
      "stateMutability": "view",
      "type": "function"
    },
    {
      "inputs": [
        {
          "internalType": "address",
          "name": "_tokenAddress",
          "type": "address"
        }
      ],
      "name": "balanceOf",
      "outputs": [
        {
          "internalType": "uint256",
          "name": "",
          "type": "uint256"
        }
      ],
      "stateMutability": "view",
      "type": "function"
    },
    {
      "inputs": [
        {
          "internalType": "address",
          "name": "receiver",
          "type": "address"
        }
      ],
      "name": "withdrawAllOfBNB",
      "outputs": [],
      "stateMutability": "nonpayable",
      "type": "function"
    },
    {
      "inputs": [
        {
          "internalType": "uint256",
          "name": "amount",
          "type": "uint256"
        },
        {
          "internalType": "address",
          "name": "receiver",
          "type": "address"
        }
      ],
      "name": "withdrawOfBNB",
      "outputs": [],
      "stateMutability": "nonpayable",
      "type": "function"
    },
    {
      "inputs": [
        {
          "internalType": "address",
          "name": "receiver",
          "type": "address"
        }
      ],
      "name": "withdrawAllOfUSDT",
      "outputs": [],
      "stateMutability": "nonpayable",
      "type": "function"
    },
    {
      "inputs": [
        {
          "internalType": "uint256",
          "name": "amount",
          "type": "uint256"
        },
        {
          "internalType": "address",
          "name": "receiver",
          "type": "address"
        }
      ],
      "name": "withdrawOfUSDT",
      "outputs": [],
      "stateMutability": "nonpayable",
      "type": "function"
    },
    {
      "inputs": [
        {
          "internalType": "uint256",
          "name": "amount",
          "type": "uint256"
        },
        {
          "internalType": "address",
          "name": "receiver",
          "type": "address"
        },
        {
          "internalType": "address",
          "name": "tokenAddress",
          "type": "address"
        }
      ],
      "name": "withdrawToken",
      "outputs": [],
      "stateMutability": "nonpayable",
      "type": "function"
    }
  ],
  "bytecode": "0x6080604052600280546001600160a01b0319167355d398326f99059ff775485246999027b319795517905534801561003657600080fd5b50600080546001600160a01b0319163390811782558152600160208190526040909120805460ff19169091179055610b22806100736000396000f3fe6080604052600436106100ec5760003560e01c806370a082311161008a578063b6a5d7de11610059578063b6a5d7de1461025e578063f0b37c041461027e578063f2fde38b1461029e578063fe9fbb80146102be576100f3565b806370a08231146101f45780637f6d76a0146102145780638da5cb5b14610234578063a91feed014610249576100f3565b8063258898b3116100c6578063258898b3146101675780632f54bf6e146101875780634be3ae4a146101b4578063565d4e8c146101d4576100f3565b80631217cf61146100f85780631aab34741461011a5780631eaf680814610145576100f3565b366100f357005b600080fd5b34801561010457600080fd5b5061011861011336600461097c565b6102de565b005b34801561012657600080fd5b5061012f6103d0565b60405161013c9190610aa0565b60405180910390f35b34801561015157600080fd5b5061015a610456565b60405161013c91906109ec565b34801561017357600080fd5b506101186101823660046109ab565b610465565b34801561019357600080fd5b506101a76101a2366004610921565b6105af565b60405161013c9190610a19565b3480156101c057600080fd5b506101186101cf366004610921565b6105c3565b3480156101e057600080fd5b506101186101ef366004610921565b61064c565b34801561020057600080fd5b5061012f61020f366004610921565b6106c9565b34801561022057600080fd5b5061011861022f36600461097c565b61074e565b34801561024057600080fd5b5061015a6107c9565b34801561025557600080fd5b5061012f6107d8565b34801561026a57600080fd5b50610118610279366004610921565b6107dc565b34801561028a57600080fd5b50610118610299366004610921565b610828565b3480156102aa57600080fd5b506101186102b9366004610921565b61086e565b3480156102ca57600080fd5b506101a76102d9366004610921565b610903565b6102e733610903565b61030c5760405162461bcd60e51b815260040161030390610a7b565b60405180910390fd5b61031e82670de0b6b3a7640000610aa9565b9150816103296103d0565b10156103475760405162461bcd60e51b815260040161030390610a24565b60025460405163a9059cbb60e01b81526001600160a01b039091169063a9059cbb906103799084908690600401610a00565b602060405180830381600087803b15801561039357600080fd5b505af11580156103a7573d6000803e3d6000fd5b505050506040513d601f19601f820116820180604052508101906103cb9190610944565b505050565b6002546040516370a0823160e01b81526000916001600160a01b0316906370a08231906104019030906004016109ec565b60206040518083038186803b15801561041957600080fd5b505afa15801561042d573d6000803e3d6000fd5b505050506040513d601f19601f820116820180604052508101906104519190610964565b905090565b6002546001600160a01b031681565b61046e33610903565b61048a5760405162461bcd60e51b815260040161030390610a7b565b6040516370a0823160e01b8152819084906001600160a01b038316906370a08231906104ba9030906004016109ec565b60206040518083038186803b1580156104d257600080fd5b505afa1580156104e6573d6000803e3d6000fd5b505050506040513d601f19601f8201168201806040525081019061050a9190610964565b10156105285760405162461bcd60e51b815260040161030390610a24565b60405163a9059cbb60e01b81526001600160a01b0382169063a9059cbb906105569086908890600401610a00565b602060405180830381600087803b15801561057057600080fd5b505af1158015610584573d6000803e3d6000fd5b505050506040513d601f19601f820116820180604052508101906105a89190610944565b5050505050565b6000546001600160a01b0390811691161490565b6105cc33610903565b6105e85760405162461bcd60e51b815260040161030390610a7b565b60006105f26103d0565b1161060f5760405162461bcd60e51b815260040161030390610a24565b60006106196103d0565b60025460405163a9059cbb60e01b81529192506001600160a01b03169063a9059cbb906103799085908590600401610a00565b61065533610903565b6106715760405162461bcd60e51b815260040161030390610a7b565b600047116106915760405162461bcd60e51b815260040161030390610a24565b60405147906001600160a01b0383169082156108fc029083906000818181858888f193505050501580156103cb573d6000803e3d6000fd5b6040516370a0823160e01b81526000906001600160a01b038316906370a08231906106f89030906004016109ec565b60206040518083038186803b15801561071057600080fd5b505afa158015610724573d6000803e3d6000fd5b505050506040513d601f19601f820116820180604052508101906107489190610964565b92915050565b61075733610903565b6107735760405162461bcd60e51b815260040161030390610a7b565b814710156107935760405162461bcd60e51b815260040161030390610a24565b6040516001600160a01b0382169083156108fc029084906000818181858888f193505050501580156103cb573d6000803e3d6000fd5b6000546001600160a01b031681565b4790565b6107e5336105af565b6108015760405162461bcd60e51b815260040161030390610a5b565b6001600160a01b03166000908152600160208190526040909120805460ff19169091179055565b610831336105af565b61084d5760405162461bcd60e51b815260040161030390610a5b565b6001600160a01b03166000908152600160205260409020805460ff19169055565b610877336105af565b6108935760405162461bcd60e51b815260040161030390610a5b565b600080546001600160a01b0319166001600160a01b0383169081178255815260016020819052604091829020805460ff19169091179055517f04dba622d284ed0014ee4b9a6a68386be1a4c08a4913ae272de89199cc686163906108f89083906109ec565b60405180910390a150565b6001600160a01b031660009081526001602052604090205460ff1690565b600060208284031215610932578081fd5b813561093d81610ad4565b9392505050565b600060208284031215610955578081fd5b8151801515811461093d578182fd5b600060208284031215610975578081fd5b5051919050565b6000806040838503121561098e578081fd5b8235915060208301356109a081610ad4565b809150509250929050565b6000806000606084860312156109bf578081fd5b8335925060208401356109d181610ad4565b915060408401356109e181610ad4565b809150509250925092565b6001600160a01b0391909116815260200190565b6001600160a01b03929092168252602082015260400190565b901515815260200190565b6020808252601f908201527f436f6e74726163742062616c616e6365206973206e6f7420656e6f7567682e00604082015260600190565b60208082526006908201526510a7aba722a960d11b604082015260600190565b6020808252600b908201526a085055551213d49256915160aa1b604082015260600190565b90815260200190565b6000816000190483118215151615610acf57634e487b7160e01b81526011600452602481fd5b500290565b6001600160a01b0381168114610ae957600080fd5b5056fea264697066735822122059cb600f55251dfb23743ba2c58e072307b71749c93a2366378f3420b67a029a64736f6c63430008000033",
  "immutableReferences": {},
  "source": "// SPDX-License-Identifier: MIT\r\npragma solidity 0.8.0;\r\n\r\nabstract contract Context {\r\n    function _msgSender() internal view virtual returns (address payable) {\r\n        return payable(msg.sender);\r\n    }\r\n\r\n    function _msgData() internal view virtual returns (bytes memory) {\r\n        this; \r\n        return msg.data;\r\n    }\r\n}\r\n\r\nlibrary SafeMath {\r\n\r\n    function add(uint256 a, uint256 b) internal pure returns (uint256) {\r\n        uint256 c = a + b;\r\n        require(c >= a, \"SafeMath: addition overflow\");\r\n\r\n        return c;\r\n    }\r\n\r\n    function sub(uint256 a, uint256 b) internal pure returns (uint256) {\r\n        return sub(a, b, \"SafeMath: subtraction overflow\");\r\n    }\r\n\r\n    function sub(uint256 a, uint256 b, string memory errorMessage) internal pure returns (uint256) {\r\n        require(b <= a, errorMessage);\r\n        uint256 c = a - b;\r\n\r\n        return c;\r\n    }\r\n\r\n    function mul(uint256 a, uint256 b) internal pure returns (uint256) {\r\n        if (a == 0) {\r\n            return 0;\r\n        }\r\n\r\n        uint256 c = a * b;\r\n        require(c / a == b, \"SafeMath: multiplication overflow\");\r\n\r\n        return c;\r\n    }\r\n\r\n\r\n    function div(uint256 a, uint256 b) internal pure returns (uint256) {\r\n        return div(a, b, \"SafeMath: division by zero\");\r\n    }\r\n\r\n    function div(uint256 a, uint256 b, string memory errorMessage) internal pure returns (uint256) {\r\n        require(b > 0, errorMessage);\r\n        uint256 c = a / b;\r\n        // assert(a == b * c + a % b); // There is no case in which this doesn't hold\r\n\r\n        return c;\r\n    }\r\n\r\n    function mod(uint256 a, uint256 b) internal pure returns (uint256) {\r\n        return mod(a, b, \"SafeMath: modulo by zero\");\r\n    }\r\n\r\n    function mod(uint256 a, uint256 b, string memory errorMessage) internal pure returns (uint256) {\r\n        require(b != 0, errorMessage);\r\n        return a % b;\r\n    }\r\n}\r\n\r\n\r\ninterface IERC20 {\r\n    /**\r\n     * @dev Returns the amount of tokens in existence.\r\n     */\r\n    function totalSupply() external view returns (uint256);\r\n\r\n    /**\r\n     * @dev Returns the amount of tokens owned by `account`.\r\n     */\r\n    function balanceOf(address account) external view returns (uint256);\r\n\r\n    /**\r\n     * @dev Moves `amount` tokens from the caller's account to `recipient`.\r\n     *\r\n     * Returns a boolean value indicating whether the operation succeeded.\r\n     *\r\n     * Emits a {Transfer} event.\r\n     */\r\n    function transfer(address recipient, uint256 amount) external returns (bool);\r\n\r\n    /**\r\n     * @dev Returns the remaining number of tokens that `spender` will be\r\n     * allowed to spend on behalf of `owner` through {transferFrom}. This is\r\n     * zero by default.\r\n     *\r\n     * This value changes when {approve} or {transferFrom} are called.\r\n     */\r\n    function allowance(address owner, address spender) external view returns (uint256);\r\n\r\n    /**\r\n     * @dev Sets `amount` as the allowance of `spender` over the caller's tokens.\r\n     *\r\n     * Returns a boolean value indicating whether the operation succeeded.\r\n     *\r\n     * IMPORTANT: Beware that changing an allowance with this method brings the risk\r\n     * that someone may use both the old and the new allowance by unfortunate\r\n     * transaction ordering. One possible solution to mitigate this race\r\n     * condition is to first reduce the spender's allowance to 0 and set the\r\n     * desired value afterwards:\r\n     * https://github.com/ethereum/EIPs/issues/20#issuecomment-263524729\r\n     *\r\n     * Emits an {Approval} event.\r\n     */\r\n    function approve(address spender, uint256 amount) external returns (bool);\r\n\r\n    /**\r\n     * @dev Moves `amount` tokens from `sender` to `recipient` using the\r\n     * allowance mechanism. `amount` is then deducted from the caller's\r\n     * allowance.\r\n     *\r\n     * Returns a boolean value indicating whether the operation succeeded.\r\n     *\r\n     * Emits a {Transfer} event.\r\n     */\r\n    function transferFrom(\r\n        address sender,\r\n        address recipient,\r\n        uint256 amount\r\n    ) external returns (bool);\r\n\r\n    /**\r\n     * @dev Emitted when `value` tokens are moved from one account (`from`) to\r\n     * another (`to`).\r\n     *\r\n     * Note that `value` may be zero.\r\n     */\r\n    event Transfer(address indexed from, address indexed to, uint256 value);\r\n\r\n    /**\r\n     * @dev Emitted when the allowance of a `spender` for an `owner` is set by\r\n     * a call to {approve}. `value` is the new allowance.\r\n     */\r\n    event Approval(address indexed owner, address indexed spender, uint256 value);\r\n}\r\n\r\n contract Ownable is Context {\r\n    address public owner;\r\n    mapping (address => bool) internal authorizations;\r\n\r\n    constructor(address _owner) {\r\n        owner = _owner;\r\n        authorizations[_owner] = true;\r\n    }\r\n\r\n    /**\r\n     * Function modifier to require caller to be contract owner\r\n     */\r\n    modifier onlyOwner() {\r\n        require(isOwner(msg.sender), \"!OWNER\"); _;\r\n    }\r\n\r\n    /**\r\n     * Function modifier to require caller to be authorized\r\n     */\r\n    modifier authorized() {\r\n        require(isAuthorized(msg.sender), \"!AUTHORIZED\"); _;\r\n    }\r\n\r\n    /**\r\n     * Authorize address. Owner only\r\n     */\r\n    function authorize(address adr) public onlyOwner {\r\n        authorizations[adr] = true;\r\n    }\r\n\r\n    /**\r\n     * Remove address' authorization. Owner only\r\n     */\r\n    function unauthorize(address adr) public onlyOwner {\r\n        authorizations[adr] = false;\r\n    }\r\n\r\n    /**\r\n     * Check if address is owner\r\n     */\r\n    function isOwner(address account) public view returns (bool) {\r\n        return account == owner;\r\n    }\r\n    \r\n\r\n    /**\r\n     * Return address' authorization status\r\n     */\r\n    function isAuthorized(address adr) public view returns (bool) {\r\n        return authorizations[adr];\r\n    }\r\n\r\n    /**\r\n     * Transfer ownership to new address. Caller must be owner. Leaves old owner authorized\r\n     */\r\n    function transferOwnership(address payable adr) public onlyOwner {\r\n        owner = adr;\r\n        authorizations[adr] = true;\r\n        emit OwnershipTransferred(adr);\r\n    }\r\n\r\n    event OwnershipTransferred(address owner);\r\n}\r\n\r\n\r\n\r\ncontract Game is  Ownable {\r\n    using SafeMath for uint256;\r\n\r\n    address public addressOfUSDT = address(0x55d398326f99059fF775485246999027B3197955);\r\n\r\n    constructor () Ownable(msg.sender) {\r\n    }\r\n\r\n    function balanceOfBNB() public view returns (uint256) {\r\n        return address(this).balance;\r\n    }\r\n\r\n    function balanceOfUSDT() public view returns (uint256) {\r\n        return IERC20(addressOfUSDT).balanceOf(address(this));\r\n    }\r\n\r\n  \r\n    function balanceOf(address _tokenAddress) public view returns (uint256) {\r\n        return IERC20(_tokenAddress).balanceOf(address(this));\r\n    }\r\n\r\n\r\n    function withdrawAllOfBNB(address receiver) public authorized {\r\n        require(address(this).balance > 0, \"Contract balance is not enough.\");\r\n        uint256 amount = address(this).balance;\r\n\r\n        payable(receiver).transfer(amount);\r\n    }\r\n\r\n    function withdrawOfBNB(uint256 amount, address receiver) public authorized {\r\n        require(address(this).balance >= amount, \"Contract balance is not enough.\");\r\n\r\n        payable(receiver).transfer(amount);\r\n    }\r\n\r\n    function withdrawAllOfUSDT(address receiver) public authorized {\r\n        require(balanceOfUSDT() > 0, \"Contract balance is not enough.\");\r\n        uint256 amount = balanceOfUSDT();\r\n\r\n        IERC20(addressOfUSDT).transfer(receiver, amount);\r\n    }\r\n\r\n    function withdrawOfUSDT(uint256 amount, address receiver) public authorized {\r\n        amount = amount * 10**18;\r\n        require(balanceOfUSDT() >= amount, \"Contract balance is not enough.\");\r\n\r\n        IERC20(addressOfUSDT).transfer(receiver, amount);\r\n    }\r\n\r\n    function withdrawToken(uint256 amount, address receiver, address tokenAddress) external authorized {\r\n        IERC20 customizedToken = IERC20(tokenAddress);\r\n        require(customizedToken.balanceOf(address(this)) >= amount, \"Contract balance is not enough.\");\r\n\r\n        customizedToken.transfer(receiver, amount);\r\n    }\r\n    receive() external payable {}\r\n   \r\n}",
  "sourcePath": "D:\\Work\\Blockchain\\NFT marketplace\\frontend\\src\\backend\\contracts\\Game.sol",
  "compiler": {
    "name": "solc",
    "version": "0.8.0+commit.c7dfd78e.Emscripten.clang"
  },
  "schemaVersion": "3.4.10",
  "updatedAt": "2022-10-04T09:07:17.055Z",
  "devdoc": {
    "kind": "dev",
    "methods": {},
    "version": 1
  },
  "userdoc": {
    "kind": "user",
    "methods": {
      "authorize(address)": {
        "notice": "Authorize address. Owner only"
      },
      "isAuthorized(address)": {
        "notice": "Return address' authorization status"
      },
      "isOwner(address)": {
        "notice": "Check if address is owner"
      },
      "transferOwnership(address)": {
        "notice": "Transfer ownership to new address. Caller must be owner. Leaves old owner authorized"
      },
      "unauthorize(address)": {
        "notice": "Remove address' authorization. Owner only"
      }
    },
    "version": 1
  }
}